:100000000C9462000C948A000C948A000C948A0070
:100010000C948A000C948A000C948A000C948A0038
:100020000C948A000C948A000C948A000C948A0028
:100030000C948A000C948A000C948A000C948A0018
:100040000C945A030C948A000C948A000C948A0035
:100050000C948A000C948A000C948A000C948A00F8
:100060000C948A000C948A000000000024002700F1
:100070002A0000000000250028002B0000000008D6
:10008000000201000003040700000000000000005F
:1000900000000000230026002900040404040404D6
:1000A0000404020202020202030303030303010227
:1000B00004081020408001020408102001020408F6
:1000C0001020F40411241FBECFEFD8E0DEBFCDBF57
:1000D00011E0A0E0B1E0E2E2FDE002C005900D9287
:1000E000A432B107D9F721E0A4E2B1E001C01D922A
:1000F000A934B207E1F710E0C2E6D0E004C02197CE
:10010000FE010E948906C136D107C9F70E94E903A2
:100110000C948F060C940000AF92BF92CF92DF92A6
:10012000EF92FF920F931F93CF93DF936C017B01AC
:100130008B01040F151FEB015E01AE18BF08C0173D
:10014000D10759F06991D601ED91FC910190F081B0
:10015000E02DC6010995892B79F7C501DF91CF9173
:100160001F910F91FF90EF90DF90CF90BF90AF90D5
:10017000089590E0FC01E458FF4F2491FC01E25502
:10018000FF4F3491FC01E656FF4FE491EE23C9F096
:10019000222339F0233001F1A8F4213019F1223063
:1001A00029F1F0E0EE0FFF1FEE58FF4FA591B4913B
:1001B0008FB7F894EC91611126C030953E233C93A3
:1001C0008FBF08952730A9F02830C9F0243049F7AF
:1001D000809180008F7D03C0809180008F77809315
:1001E0008000DFCF84B58F7784BDDBCF84B58F7D72
:1001F000FBCF8091B0008F778093B000D2CF8091F9
:10020000B0008F7DF9CF3E2BDACFCF93DF9390E014
:10021000FC01E255FF4F249186569F4FFC018491CB
:100220008823D1F090E0880F991FFC01E859FF4F17
:10023000A591B491FC01EE58FF4FC591D491611185
:100240000EC09FB7F8948C91E22FE0958E238C938B
:100250002881E223E8839FBFDF91CF9108958FB774
:10026000F894EC91E22BEC938FBFF6CF3FB7F89464
:100270008091290190912A01A0912B01B0912C012C
:1002800026B5A89B05C02F3F19F00196A11DB11DF1
:100290003FBFBA2FA92F982F8827BC01CD01620F2D
:1002A000711D811D911D42E0660F771F881F991FE8
:1002B0004A95D1F708958F929F92AF92BF92CF92B5
:1002C000DF92EF92FF920E9436014B015C0188EEB3
:1002D000C82E83E0D82EE12CF12C0E94360168193B
:1002E00079098A099B09683E734081059105A8F345
:1002F00021E0C21AD108E108F10888EE880E83E0F7
:10030000981EA11CB11CC114D104E104F10429F709
:10031000FF90EF90DF90CF90BF90AF909F908F9025
:100320000895089590E080E00895FC010190002078
:10033000E9F73197AF01481B590BBC0181E391E00C
:100340000C948C008F929F92AF92BF920F931F9349
:10035000CF93DF93CDB7DEB7A1970FB6F894DEBF8A
:100360000FBECDBF19A2423008F44AE08E010F5DE6
:100370001F4F842E912CB12CA12CA50194010E9419
:100380004806E62FB901CA01EA30F4F4E05DD8016D
:10039000EE938D01232B242B252B79F790E080E021
:1003A000109719F0CD010E949501A1960FB6F8940F
:1003B000DEBF0FBECDBFDF91CF911F910F91BF90D8
:1003C000AF909F908F900895E95CE1CFCF93DF933A
:1003D000EC0160E08E810E94B90061E08E810E9494
:1003E000B90060E08E810E94B9008BE891E001972E
:1003F000F1F7DF91CF910895CF92DF92EF92FF92C4
:100400000F931F93CF93DF936C017C0187E0E80E7D
:10041000F11CD0E0C0E0062F10E0B8010C2E02C0A5
:10042000759567950A94E2F76170F70181917F01F4
:100430000E94B9002196C430D10579F7C601DF9139
:10044000CF911F910F91FF90EF90DF90CF900C9480
:10045000E601CF92DF92EF92FF920F931F93CF931B
:10046000DF93EC01F62E642F8C810E94B9008D8100
:100470008F3F19F060E00E94B9000F2D10E08F85CA
:1004800084FF25C06E0187E0C80ED11CF12CE12C41
:10049000B8010E2C02C0759567950A94E2F7617059
:1004A000F60181916F010E94B900FFEFEF1AFF0A78
:1004B00088E0E816F10461F7CE01DF91CF911F913A
:1004C0000F91FF90EF90DF90CF900C94E601B80170
:1004D00084E0759567958A95E1F7CE010E94FC014D
:1004E0006F2DCE01DF91CF911F910F91FF90EF9073
:1004F000DF90CF900C94FC0140E0682F81E391E005
:100500000C94290281E00E947C028BE39FE1019719
:10051000F1F70895CF93DF93823029F49091400151
:10052000986090934001809344011092450180E4CB
:100530008093460180E18093470180E580934801E4
:1005400061E0809135010E940501809136018F3F65
:1005500019F061E00E94050161E0809137010E947D
:100560000501C1E3D1E09E0121533140809140015A
:1005700084FD0BC084E090E021962817390744F4ED
:1005800061E08E810E940501EECF88E090E0F4CF1B
:100590008BE39DE00197F1F760E0809135010E94C7
:1005A000B90060E0809137010E94B9008091360166
:1005B0008F3F19F060E00E94B9008091400184FDF6
:1005C00034C063E081E391E00E94FC01CBE4D6E417
:1005D000CE010197F1F763E081E391E00E94FC0115
:1005E0002197F1F763E081E391E00E94FC0183E54C
:1005F00092E00197F1F762E081E391E00E94FC0153
:100600008091400180620E947C0284E080934101DD
:100610008CE00E947C020E94820282E08093420170
:1006200086E0DF91CF910C947C0280620E947C0274
:100630008BE496E40197F1F78091400180620E947B
:100640007C0283E592E00197F1F78091400180629E
:100650000E947C02D5CFE1E0809144018111E0E06D
:10066000E195F0E0EF5CFE4F848980680C947C0299
:1006700041E00E94290281E090E00895CF92DF924C
:10068000EF92FF926B017C0141E06DE281E391E02A
:100690000E94290266277727CB016C197D098E09F4
:1006A0009F094AE00E94A2010196FF90EF90DF901F
:1006B000CF9008951F920F920FB60F9211242F938F
:1006C0003F938F939F93AF93BF9380912501909118
:1006D0002601A0912701B09128013091240123E047
:1006E000230F2D3758F50196A11DB11D209324012C
:1006F0008093250190932601A0932701B0932801B0
:100700008091290190912A01A0912B01B0912C0197
:100710000196A11DB11D8093290190932A01A093F8
:100720002B01B0932C01BF91AF919F918F913F917D
:100730002F910F900FBE0F901F90189526E8230F52
:100740000296A11DB11DD2CFCF92DF92EF92FF9200
:100750000F931F93E82FF92F05C0015011092109AC
:10076000310961F1908196239417B9F305C00150C6
:1007700011092109310911F1908196239413F7CFC2
:10078000C12CD12CE12CF12C0AC08FEFC81AD80A49
:10079000E80AF80A0C151D052E053F0579F0808141
:1007A0008623841791F36C2D7D2D8E2D9F2D1F9107
:1007B0000F91FF90EF90DF90CF90089560E070E090
:1007C00080E090E01F910F91FF90EF90DF90CF902D
:1007D0000895789484B5826084BD84B5816084BDB9
:1007E00085B5826085BD85B5816085BD80916E00CF
:1007F000816080936E001092810080918100826000
:10080000809381008091810081608093810080913C
:1008100080008160809380008091B100846080932B
:10082000B1008091B00081608093B00080917A0027
:10083000846080937A0080917A00826080937A004D
:1008400080917A00816080937A0080917A0080683C
:1008500080937A001092C10082E00E948A0261E0D7
:1008600083E00E94050160E082E00E94050161E0F2
:100870008CE00E940501C3E0D0E093E2E92EF12C68
:1008800020EB822E20E0922E3CE9C32E30E0D32EC6
:1008900044E1442E512C612C712C50E0A52E50E0E7
:1008A000B52E0E9482020E942B0360E083E00E942A
:1008B000B900CE010197F1F761E083E00E94B90031
:1008C000C7010197F1F760E083E00E94B900F401ED
:1008D0006491F6018491E82FF0E0EE0FFF1FE057DE
:1008E000FF4F8591949100E412E42FE030E0462F11
:1008F0000E94A403611571058105910529F06F5FC0
:100900007F4F8F4F9F4F9F70A30192010E946A06F5
:10091000CA01B9010E94BC052DEC3CEC48EE51E443
:100920000E9412050E94840560932D0170932E0190
:1009300080932F01909330016B30710581059105F3
:1009400078F50E9482020E942B038CE091E00E94C5
:10095000950160912D0170912E0180912F01909150
:10096000300197FF19C00E943E0385E191E00E948B
:10097000950187E191E00E9495010E945B0161E091
:100980008CE00E94B9000E945B01A114B10409F43B
:1009900088CF0E94000085CF4AE00E94A201E5CFE7
:1009A0000E9482020E942B038AE191E00E9495013D
:1009B00060912D0170912E0180912F019091300155
:1009C00097FF0EC00E943E0385E191E00E949501D1
:1009D00087E191E00E9495010E945B0160E0D0CF29
:1009E0004AE00E94A201F0CFE1E3F1E0138212821B
:1009F00084E091E09183808389E084838FEF858315
:100A000088E0868384E0878385E0808786E081872D
:100A100087E082871386148615861686178681E0FE
:100A20000C948A020E9426050C940E060E9407066A
:100A300058F00E94000640F029F45F3F29F00C9422
:100A4000F70551110C9442060C94FD050E941F06F7
:100A500068F39923B1F3552391F3951B550BBB27ED
:100A6000AA2762177307840738F09F5F5F4F220F32
:100A7000331F441FAA1FA9F335D00E2E3AF0E0E829
:100A800032D091505040E695001CCAF72BD0FE2F73
:100A900029D0660F771F881FBB1F26173707480707
:100AA000AB07B0E809F0BB0B802DBF01FF279358BF
:100AB0005F4F3AF09E3F510578F00C94F7050C9487
:100AC00042065F3FE4F3983ED4F3869577956795A9
:100AD000B795F7959F5FC9F7880F911D96958795F4
:100AE00097F90895E1E0660F771F881FBB1F621713
:100AF00073078407BA0720F0621B730B840BBA0BD1
:100B0000EE1F88F7E09508950E948B056894B11157
:100B10000C94420608950E94270688F09F5798F08B
:100B2000B92F9927B751B0F0E1F0660F771F881FF2
:100B3000991F1AF0BA95C9F714C0B13091F00E940C
:100B40004106B1E008950C944106672F782F88275D
:100B5000B85F39F0B93FCCF3869577956795B39533
:100B6000D9F73EF490958095709561957F4F8F4FA2
:100B70009F4F0895E89409C097FB3EF490958095A7
:100B8000709561957F4F8F4F9F4F9923A9F0F92F53
:100B900096E9BB279395F695879577956795B795D1
:100BA000F111F8CFFAF4BB0F11F460FF1BC06F5FB7
:100BB0007F4F8F4F9F4F16C0882311F096E911C0C9
:100BC000772321F09EE8872F762F05C0662371F0EA
:100BD00096E8862F70E060E02AF09A95660F771FFE
:100BE000881FDAF7880F9695879597F9089597F9F2
:100BF0009F6780E870E060E008959FEF80EC0895C3
:100C000000240A94161617061806090608950024EB
:100C10000A9412161306140605060895092E039465
:100C2000000C11F4882352F0BB0F40F4BF2B11F4D9
:100C300060FF04C06F5F7F4F8F4F9F4F089557FD38
:100C40009058440F551F59F05F3F71F04795880F3A
:100C500097FB991F61F09F3F79F0879508951216D1
:100C600013061406551FF2CF4695F1DF08C016167D
:100C700017061806991FF1CF86957105610508942E
:100C80000895E894BB2766277727CB0197F9089545
:100C9000A1E21A2EAA1BBB1BFD010DC0AA1FBB1F80
:100CA000EE1FFF1FA217B307E407F50720F0A21BF2
:100CB000B30BE40BF50B661F771F881F991F1A945F
:100CC00069F760957095809590959B01AC01BD0189
:100CD000CF010895052E97FB1EF400940E94810613
:100CE00057FD07D00E94480607FC03D04EF40C9431
:100CF000810650954095309521953F4F4F4F5F4F5E
:100D0000089590958095709561957F4F8F4F9F4F77
:100D10000895EE0FFF1F0590F491E02D0994F894CB
:020D2000FFCF03
:100D22000000000038038C00920191015761726E3D
:100D3200696E673A006D000D0A0044697374616E52
:040D420063653A00AB
:00000001FF
